:020000040800F2
:10000000000100200900000840F20830C4F242203C
:100010004FF00101016040F60000C4F201004FF012
:100020000401026861F303024FF0020161F3071259
:1000300061F30B2261F30F3261F3134261F3175244
:1000400061F31B6261F31F72026040F20C30C4F274
:1000500042204FF00101016040F60040C4F201006F
:100060004FF00201026861F3030261F307120260BC
:1000700040F61000C4F2010040F61041C4F2010144
:1000800040F60802C4F201024FF000034FF00104F1
:100090004FF014051F2B08BF002300F02FF8012C90
:1000A00002D0002C07D0F5E71E4600F011F89E4262
:1000B00018BF0024EEE700F01AF8EBE701B442F2B3
:1000C0001070C0F20000013818BFFCE701BC704797
:1000D00001B4106810F0010018BF013301BC704773
:1000E0004FF00A05B3FBF5F404FB15357047002DFE
:1000F00019BF0024013D01241425704734B5FFF7D2
:10010000EFFF40F20002C0F2FE020260224600F061
:1001100021F802604FF001020A60FFF7CFFF40F2C2
:100120000002C0F201020A6040F20002C0F2FE02C8
:1001300002602A4600F00EF802604FF002020A60E8
:10014000FFF7BCFF40F20002C0F202020A60BDE805
:1001500034407047002A04BF80227047012A04BF40
:10016000F2227047022A04BF48227047032A04BFC4
:1001700060227047042A04BF32227047052A04BF58
:1001800024227047062A04BF04227047072A04BFAE
:10019000F0227047082A04BF00227047092A04BFD2
:0801A0002022704770470000A7
:0400000508000009E6
:00000001FF
