:020000040800F2
:1000000068060020BD010008C5010008C7010008FE
:10001000C9010008CB010008CD0100080000000064
:10002000000000000000000000000000CF010008F8
:10003000D101000800000000D3010008D50100082C
:10004000D7010008D7010008D7010008D701000830
:10005000D7010008D7010008D7010008D701000820
:10006000D7010008D7010008D7010008D701000810
:10007000D7010008D7010008D7010008D701000800
:10008000D7010008D7010008D701000800000000D0
:10009000000000000000000000000000D701000880
:1000A000D7010008D7010008D7010008D7010008D0
:1000B000D7010008D7010008D7010008D7010008C0
:1000C000D7010008D7010008D7010008D7010008B0
:1000D000D7010008D7010008D7010008D7010008A0
:1000E000D7010008D7010008D70100080000000070
:1000F0000000000000000000000000000000000000
:1001000000000000000000000000000000000000EF
:100110000000000000000000D7010008D70100081F
:1001200000F002F800F03AF80AA090E8000C8244CF
:100130008344AAF10107DA4501D100F02FF8AFF2AC
:10014000090EBAE80F0013F0010F18BFFB1A43F0B5
:10015000010318473004000050040000103A24BF87
:1001600078C878C1FAD8520724BF30C830C144BF1C
:1001700004680C607047000000230024002500265E
:10018000103A28BF78C1FBD8520728BF30C148BFFA
:100190000B6070471FB51FBD10B510BD00F031F8E2
:1001A0001146FFF7F7FF00F011F900F04FF803B424
:1001B000FFF7F2FF03BC00F057F800000948804742
:1001C00009480047FEE7FEE7FEE7FEE7FEE7FEE739
:1001D000FEE7FEE7FEE7FEE704480549054A064B51
:1001E000704700001D03000821010008680000207E
:1001F00068060020680200206802002070477047EF
:100200007047754600F02CF8AE4605006946534627
:1002100020F00700854618B020B5FFF7DDFFBDE8E8
:1002200020404FF000064FF000074FF000084FF05D
:10023000000BAC46ACE8C009ACE8C009ACE8C009AA
:10024000ACE8C00921F007018D46704710B504469F
:10025000AFF300802046BDE81040FFF7A8BF0000C4
:10026000004870470800002001491820ABBEFEE797
:10027000260002007047000080B500F001F880BD44
:1002800082B041F204000021C4F202000191009109
:1002900050F8041C41F4803140F8041C50F8041C50
:1002A00001F400310091019901310191009919B9CE
:1002B0000199B1F5A06FF1D150F8041C890354BF26
:1002C0000021012100910099012924D101680160D8
:1002D0000168016001680160016821F47C1101601E
:1002E000016841F49811016050F8041C41F08071DC
:1002F00040F8041C50F8041C8901FBD5016821F06A
:1003000003010160016841F002010160016801F030
:100310000C010829FAD102B07047000080B541F203
:100320000000C4F202000168002241F001010160F6
:100330004168CFF6FF021140416001684FF6FF723D
:10034000CFF6F66211400160016821F4802101605E
:10035000416821F4FE0141604FF41F0181600021DA
:10036000C162FFF789FF4EF60850CEF200004FF051
:100370000061016080BD000040F20001C2F2000196
:10038000088820B10888421E00200A80704701209A
:100390001E220A807047000040F60802C4F20102E3
:1003A0001268D20705D000291EBF013880B27047FD
:1003B000013080B27047000081B000900098411E6B
:1003C00000280091FAD101B07047000000F040F819
:1003D00001244FF00008002700250AE0B9B230469A
:1003E000FFF7DAFF0546864218BF4446A8B200F080
:1003F00095F8AEB21E2E08BF0127002E08BF374663
:100400002004EBD1FFF7B8FF0446EFE7092888BFC7
:10041000704700B204A151F8200040F61001C4F268
:1004200001010860704700BF80000000F20000007A
:1004300048000000600000003200000024000000BE
:1004400004000000F0000000000000002000000098
:1004500041F21800C4F20200016841F00C01016091
:1004600040F60000C4F20100016821F00F010160B4
:10047000016821F0F0010160016821F47061016000
:10048000016821F470410160016821F4702101606C
:10049000016821F470010160016821F07061016060
:1004A000016821F070410160D0F8001421F00F01C3
:1004B000C0F80014D0F8001421F0F001C0F80014C6
:1004C000016841F004010160016841F02001016010
:1004D000016841F400710160016841F4005101605C
:1004E000016841F400310160016841F400110160CC
:1004F000016841F000710160016841F00051016044
:10050000D0F8001441F00201C0F80014D0F8001433
:1005100041F02001C0F8001470470000F0B581B030
:100520004CF6CD41CCF6CC41A0FB0112D10801EB39
:1005300081024FF6004640F61044A0EB4205CFF68C
:10054000FF76C4F201044FF47E070846A751FFF777
:100550005DFF0120206042F21070FFF72DFF4FF485
:1005600080302060A8B2A751FFF750FF0220206022
:1005700042F21070FFF720FF4FF40030206001B00E
:10058000F0BD0000A40500080000002004000000E9
:100590005C010008A80500080800002060060000B3
:0805A000780100081E000000B4
:04000005080001BD31
:00000001FF
