:020000040800F2
:10000000680700207D0100088501000887010008BD
:10001000890100088B0100088D0100080000000024
:100020000000000000000000000000008F01000838
:1000300091010008000000009301000895010008EC
:100040009701000897010008970100089701000830
:1000500097010008970100086D0600089701000845
:100060009701000897010008970100089701000810
:100070009701000897010008970100089701000800
:1000800097010008970100089701000897010008F0
:1000900097010008970100089701000897010008E0
:1000A00097010008970100089701000897010008D0
:1000B000E907000897010008970100089701000868
:1000C00097010008970100089701000897010008B0
:1000D00097010008A9080008970100089701000887
:1000E00097010008970100089701000800F002F846
:1000F00000F035F80AA090E8000C82448344AAF18D
:100100000107DA4501D100F02AF8AFF2090EBAE88A
:100110000F0013F0010F18BFFB1A43F0010318473B
:10012000C40A0000D40A0000002300240025002691
:10013000103A28BF78C1FBD8520728BF30C148BF4A
:100140000B6070471FB500F047F904000020002144
:1001500000F02EFD401C60601FBD10B510BD00F00A
:100160004DF91146FFF7EEFF00F098FC00F06BF937
:1001700003B4FFF7F2FF03BC00F0AEF90948804773
:1001800009480047FEE7FEE7FEE7FEE7FEE7FEE779
:10019000FEE7FEE7FEE7FEE704480549054A064B91
:1001A0007047000091070008ED000008680100207A
:1001B0006807002068030020680300202DE9F0474D
:1001C00091460F4680460446002614F8015B2DB187
:1001D00000F0A2F80068405DC007F6D12B2D02D0D8
:1001E0002D2D18D0641E4A463946204600F0A0F84E
:1001F00027B13968A14201D1C7F800804FF002044D
:1002000071050BD54042002803DD00F08DF8046035
:10021000A007BDE8F08746F48066E4E70028F8DA36
:1002200000F082F804606FF00040F2E740EA01035A
:1002300010B59B070FD1042A0DD310C808C9121F8F
:100240009C42F8D020BA19BA884201D9012010BDC9
:100250004FF0FF3010BD1AB1D30703D0521C07E096
:10026000002010BD10F8013B11F8014B1B1B07D1FA
:1002700010F8013B11F8014B1B1B01D1921EF1D16B
:10028000184610BD10B5431C02E010F8011B71B1F7
:100290008107FAD14FF0013202C88C1A8C4314EA5C
:1002A000C211F9D0C01A0A0603D0C01E10BDC01A70
:1002B00010BD0A0401D0801E10BD0902FCD0401EF2
:1002C00010BD4FF0000200B5134694469646203903
:1002D00022BFA0E80C50A0E80C50B1F12001BFF4FF
:1002E000F7AF090728BFA0E80C5048BF0CC05DF865
:1002F00004EB890028BF40F8042B08BF704748BFB3
:1003000020F8022B11F0804F18BF00F8012B704726
:10031000704770477047000010B500F05DF8001D91
:1003200010BD00BF8D08000000487047000000208D
:100330002DE9F05F824615468B4600270AF101043D
:10034000B9460078302801D09DB113E014F8010BB4
:100350000127782803D0582801D045B10AE00DB113
:10036000102D07D1002714F8010B102502E00825F5
:1003700000E00A250026B0460EE005FB080005FB5C
:1003800006F101271FFA80F801EB1046B6F5803F11
:1003900000D3B94614F8010B294600F021F80028D3
:1003A000EBDABBF1000F05D00FB1641E00E054463C
:1003B000CBF80040B9F1000F06D0FFF7B5FF0221DE
:1003C0000160C81EBDE8F09F48EA0640FAE7000059
:1003D00000487047000000200048704720000020BF
:1003E0003A2800D2303820F02002412A01D3A2F16D
:1003F0003700884201D34FF0FF3070477546FFF752
:10040000E7FFAE4605006946534620F007008546E3
:1004100018B020B5FFF7C0FEBDE820404FF0000641
:100420004FF000074FF000084FF0000BAC46ACE86F
:10043000C009ACE8C009ACE8C009ACE8C00921F0CB
:1004400007018D46704710B50446AFF30080204683
:10045000BDE81040FFF78CBE4FF0013C50F8042B74
:1004600051F8043B9A4221D1A2EB0C03934313EAC7
:10047000CC1317D150F8042B51F8043B9A4215D1F4
:10048000A2EB0C03934313EACC130BD150F8042BCB
:1004900051F8043B9A4209D1A2EB0C03934313EAAF
:1004A000CC13DBD04FF00000704700BFD01A01BA68
:1004B000B1FA81F101F0180122FA01F0CB40DBB270
:1004C000C0B2C01AC1F120012CFA01F3D11A914334
:1004D00011EAC311E6D1704701491820ABBEFEE70F
:1004E0002600020070470000B0B582B040F2600400
:1004F000C2F200042046FFF7C5FE851E35A1204646
:100500000522FFF793FE002808BF052D26D040F2F4
:100510006000C2F2000031A10322FFF787FE032D25
:1005200008BF00281CD040F26004C2F200042CA1D5
:1005300020460322FFF77AFE032D08BF002818D0BB
:10054000206844F25351C2F25401401A18BF0120EE
:10055000062D08BF00281DD022A132E03CA130E0CA
:1005600040F26210C2F2000001881E290AD12FA1B8
:1005700027E040F26210C2F20000018801B3018856
:10058000013901E001880131018040F6DC31C0F61B
:10059000000116E0201D01A90A22FFF70FFE1E2808
:1005A00015A10ED8019AA31D9A420AD140F26211F8
:1005B000C2F20001088040F6DC31C0F6000100E024
:1005C00012A143F60000C4F2010000F0D9F902B014
:1005D000B0BD00BF2A49444E3F000000494E4300D1
:1005E00044454300556E6B6E6F776E20636F6D6D83
:1005F000616E640D0A000000496E76616C696420CA
:10060000706172616D657465720D0A00496E766184
:100610006C696420636F6D6D616E642C20636F750F
:100620006E74657220697320300D0A00496E766120
:100630006C696420636F6D6D616E642C20636F75EF
:100640006E7465722069732033300D0A000000005B
:10065000536B616C6368656E6B6F765F536C65702E
:100660006F765F4955342D37330D0A0070B544F26B
:100670004024C0F20F0440F608062046C4F20106EA
:1006800000F002FA00F0E4F93068C0070BD14FF631
:100690000C40CFF6FF70315841F001013150204637
:1006A00000F0F2F970BD4EF26035C0F2160502E0BE
:1006B0003068C007EBD03068C007F9D0284600F09A
:1006C000E3F900F0C5F9F3E780B500F001F880BD6B
:1006D00082B041F204000021C4F2020001910091B5
:1006E00050F8041C41F4803140F8041C50F8041CFC
:1006F00001F400310091019901310191009919B97A
:100700000199B1F5A06FF1D150F8041C890354BFD1
:100710000021012100910099012936D142F2000106
:10072000C4F202010A6842F010020A600A6822F06C
:1007300003020A600A6842F002020A60016801606E
:1007400001680160016841F480610160016821F481
:100750007C110160016841F4E811016050F8041C4B
:1007600041F0807140F8041C50F8041C8901FBD54D
:10077000016821F003010160016841F0020101609C
:10078000016801F00C010829FAD102B0704700009D
:1007900080B541F20000C4F202000168002241F07D
:1007A000010101604168CFF6FF021140416001681C
:1007B0004FF6FF72CFF6F66211400160016821F436
:1007C00080210160416821F4FE0141604FF41F0166
:1007D0008160FFF779FF4EF60850CEF200004FF02F
:1007E0000061016080BD0000F0B581B01020C4F24E
:1007F0000000018840F6104421F0010101804FF60D
:100800000040C4F20104CFF6FF704FF47E01215086
:100810004FF4403040F260152060C2F2000540F213
:1008200062102978C2F20000008869B14CF6CD410F
:10083000CCF6CC41A0FB0112D10801EB8101A0EB69
:1008400041000027022608E04CF6CD41CCF6CC4111
:10085000A0FB0101C8080126012780B200F028F999
:1008600026602F7001B0F0BD80B541F21C00C4F2CB
:100870000200016841F0010101600C20C4F2000097
:1008800040F2AF418183EF210184018841F00101F1
:1008900001804FF08040018841F0010101801C205F
:1008A00000F082F880BD000070B543F60000C4F28D
:1008B00001000188890626D540F260048688C2F2CC
:1008C00000042046F5B2FFF7DDFC211811F8011CE9
:1008D0000A2D265408BF0D290BD0FF2809D081F01E
:1008E0000A0085F00D010843B0FA80F0400908BF06
:1008F00070BDFFF7F9FD40F26000C2F200004FF456
:100900008071FFF7DEFC70BD80B541F21800C4F2C3
:100910000200016844F204021143016040F6040041
:10092000C4F20100016842F20C0221F0F001016002
:10093000016841F0A0010160016821F4706101606B
:10094000016841F48061016043F60C00C4F20100CB
:1009500040F2712120F8041C0188114301800188B4
:1009600041F020010180252000F01EF8252000F034
:100970002BF880BD818000BF01884906FCD57047F7
:1009800070B50C460978002908BF70BD05460026E1
:10099000A15D2846FFF7EEFF20460136FFF772FC07
:1009A0008642F5D370BD0000002848BF704700F0B4
:1009B0001F01012202FA01F14EF200124009CEF2AB
:1009C000000242F8201070474EF6145200F00F015A
:1009D000CEF20002114400F16042B0F1FF3F4FF04F
:1009E0001000C8BF02F564410870704780B541F23D
:1009F0001800C4F20200016841F00501016040F6F0
:100A00000000C4F20100016821F00F0101600168DB
:100A100041F0040101604FF60801CFF6FF71425822
:100A200042504FF60841CFF6FF71425842F00102A2
:100A300042504FF60041CFF6FF71425842F001029A
:100A400042500620FFF7B0FF0620FFF7BDFF80BD34
:100A500040F26210C2F2000001884FF0FF331E29FD
:100A600040F26411C2F2000104BF01220A80028830
:100A7000002A04BF00220A8009880288002908BFD2
:100A80000123D1180180704781B000900098411E69
:100A900000280091FAD101B07047000000F02AF858
:100AA000FFF7A4FFFFF7E0FEFFF72EFFFEE70000D1
:100AB000092888BF704700B204A151F8200040F611
:100AC0001001C4F201010860704700BF80000000FF
:100AD000F20000004800000060000000320000004A
:100AE0002400000004000000F000000000000000EE
:100AF0002000000041F21800C4F20200016841F039
:100B00000D01016040F60000C4F20100016821F00F
:100B1000F0010160016821F470610160016821F455
:100B200070410160016821F470210160016821F4C5
:100B300070010160016821F070610160016821F0BD
:100B400070410160D0F8001421F00F01C0F80014CA
:100B5000D0F8001421F0F001C0F80014016841F051
:100B600020010160016841F400710160016841F4F5
:100B700000510160016841F400310160016841F4F5
:100B800000110160016841F000710160016841F0ED
:100B900000510160D0F8001441F00201C0F80014C7
:100BA000D0F8001441F02001C0F800147047000094
:100BB00010B500290AD00878002807D005487844E5
:100BC000FFF74AFC002801D0002010BD02487844FD
:100BD00010BD0000360000002E0000004F4B0D0A33
:100BE00000000000040D000800000020680700005D
:100BF000280100081001000043000000F8FFFFFF7B
:100C0000004040404040404040404141414141401F
:100C100040404040404040404040404040404040D4
:100C20004005020202020202020202020202020263
:100C30000220202020202020202020020202020268
:100C400002029090909090901010101010101010C0
:100C500010101010101010101010101002020202CC
:100C60000202888888888888080808080808080810
:100C7000080808080808080808080808020202020C
:100C80004000000000000000000000000000000024
:100C90000000000000000000000000000000000054
:100CA0000000000000000000000000000000000044
:100CB0000000000000000000000000000000000034
:100CC0000000000000000000000000000000000024
:100CD0000000000000000000000000000000000014
:100CE0000000000000000000000000000000000004
:100CF00000000000000000000000000000000000F4
:040D000000000000EF
:040000050800017D71
:00000001FF
